{
  "contractName": "TicTacToe",
  "abi": [
    {
      "anonymous": false,
      "inputs": [
        {
          "indexed": false,
          "internalType": "uint256",
          "name": "game_id",
          "type": "uint256"
        }
      ],
      "name": "GameStarted",
      "type": "event"
    },
    {
      "anonymous": false,
      "inputs": [
        {
          "indexed": false,
          "internalType": "uint256",
          "name": "game_id",
          "type": "uint256"
        },
        {
          "indexed": false,
          "internalType": "address",
          "name": "winner",
          "type": "address"
        },
        {
          "indexed": false,
          "internalType": "uint256",
          "name": "amount",
          "type": "uint256"
        }
      ],
      "name": "GameWon",
      "type": "event"
    },
    {
      "inputs": [
        {
          "internalType": "address",
          "name": "",
          "type": "address"
        }
      ],
      "name": "leaderboard",
      "outputs": [
        {
          "internalType": "uint256",
          "name": "",
          "type": "uint256"
        }
      ],
      "stateMutability": "view",
      "type": "function",
      "constant": true
    },
    {
      "inputs": [
        {
          "internalType": "address",
          "name": "dest",
          "type": "address"
        }
      ],
      "name": "payments",
      "outputs": [
        {
          "internalType": "uint256",
          "name": "",
          "type": "uint256"
        }
      ],
      "stateMutability": "view",
      "type": "function",
      "constant": true
    },
    {
      "inputs": [
        {
          "internalType": "uint256",
          "name": "",
          "type": "uint256"
        }
      ],
      "name": "winners",
      "outputs": [
        {
          "internalType": "address",
          "name": "",
          "type": "address"
        }
      ],
      "stateMutability": "view",
      "type": "function",
      "constant": true
    },
    {
      "inputs": [
        {
          "internalType": "address payable",
          "name": "payee",
          "type": "address"
        }
      ],
      "name": "withdrawPayments",
      "outputs": [],
      "stateMutability": "nonpayable",
      "type": "function"
    },
    {
      "inputs": [
        {
          "internalType": "address",
          "name": "payout_x",
          "type": "address"
        },
        {
          "internalType": "address",
          "name": "payout_o",
          "type": "address"
        }
      ],
      "name": "startGame",
      "outputs": [],
      "stateMutability": "payable",
      "type": "function",
      "payable": true
    },
    {
      "inputs": [
        {
          "internalType": "uint256",
          "name": "game_id",
          "type": "uint256"
        },
        {
          "internalType": "uint256",
          "name": "winner",
          "type": "uint256"
        }
      ],
      "name": "endGame",
      "outputs": [],
      "stateMutability": "nonpayable",
      "type": "function"
    },
    {
      "inputs": [],
      "name": "getWinners",
      "outputs": [
        {
          "internalType": "address[]",
          "name": "",
          "type": "address[]"
        }
      ],
      "stateMutability": "view",
      "type": "function",
      "constant": true
    }
  ],
  "bytecode": "0x60a060405234801561001057600080fd5b5060405161001d90610072565b604051809103906000f080158015610039573d6000803e3d6000fd5b5073ffffffffffffffffffffffffffffffffffffffff1660808173ffffffffffffffffffffffffffffffffffffffff168152505061007f565b610ba18061109483390190565b608051610fec6100a8600039600081816101c7015281816104bd01526108310152610fec6000f3fe6080604052600436106100705760003560e01c8063d1d33d201161004e578063d1d33d2014610104578063df15c37e14610141578063e2982c211461016c578063eb23b56b146101a957610070565b806331b3eb94146100755780639f98985d1461009e578063a2fb1175146100c7575b600080fd5b34801561008157600080fd5b5061009c600480360381019061009791906109bc565b6101c5565b005b3480156100aa57600080fd5b506100c560048036038101906100c09190610a1f565b610253565b005b3480156100d357600080fd5b506100ee60048036038101906100e99190610a5f565b6103d4565b6040516100fb9190610aad565b60405180910390f35b34801561011057600080fd5b5061012b60048036038101906101269190610af4565b610413565b6040516101389190610b30565b60405180910390f35b34801561014d57600080fd5b5061015661042b565b6040516101639190610c09565b60405180910390f35b34801561017857600080fd5b50610193600480360381019061018e9190610af4565b6104b9565b6040516101a09190610b30565b60405180910390f35b6101c360048036038101906101be9190610c2b565b61055c565b005b7f000000000000000000000000000000000000000000000000000000000000000073ffffffffffffffffffffffffffffffffffffffff166351cff8d9826040518263ffffffff1660e01b815260040161021e9190610c7a565b600060405180830381600087803b15801561023857600080fd5b505af115801561024c573d6000803e3d6000fd5b5050505050565b6000828154811061026757610266610c95565b5b906000526020600020906004020160030160009054906101000a900460ff16156102c6576040517f08c379a00000000000000000000000000000000000000000000000000000000081526004016102bd90610d47565b60405180910390fd5b60008083815481106102db576102da610c95565b5b906000526020600020906004020160010182600281106102fe576102fd610c95565b5b0160009054906101000a900473ffffffffffffffffffffffffffffffffffffffff169050600080848154811061033757610336610c95565b5b906000526020600020906004020160000154905060016000858154811061036157610360610c95565b5b906000526020600020906004020160030160006101000a81548160ff021916908315150217905550610393828261082f565b7f9e59e9b0ec1755ccaf2fd4a7ed4ad5b0a678626e91834aee53ebdf1356bd390a8483836040516103c693929190610d67565b60405180910390a150505050565b600181815481106103e457600080fd5b906000526020600020016000915054906101000a900473ffffffffffffffffffffffffffffffffffffffff1681565b60026020528060005260406000206000915090505481565b606060018054806020026020016040519081016040528092919081815260200182805480156104af57602002820191906000526020600020905b8160009054906101000a900473ffffffffffffffffffffffffffffffffffffffff1673ffffffffffffffffffffffffffffffffffffffff1681526020019060010190808311610465575b5050505050905090565b60007f000000000000000000000000000000000000000000000000000000000000000073ffffffffffffffffffffffffffffffffffffffff1663e3a9db1a836040518263ffffffff1660e01b81526004016105149190610aad565b602060405180830381865afa158015610531573d6000803e3d6000fd5b505050506040513d601f19601f820116820180604052508101906105559190610db3565b9050919050565b6000341161059f576040517f08c379a000000000000000000000000000000000000000000000000000000000815260040161059690610e2c565b60405180910390fd5b600073ffffffffffffffffffffffffffffffffffffffff168273ffffffffffffffffffffffffffffffffffffffff160361060e576040517f08c379a000000000000000000000000000000000000000000000000000000000815260040161060590610e98565b60405180910390fd5b600073ffffffffffffffffffffffffffffffffffffffff168173ffffffffffffffffffffffffffffffffffffffff160361067d576040517f08c379a000000000000000000000000000000000000000000000000000000000815260040161067490610f04565b60405180910390fd5b8073ffffffffffffffffffffffffffffffffffffffff168273ffffffffffffffffffffffffffffffffffffffff16036106eb576040517f08c379a00000000000000000000000000000000000000000000000000000000081526004016106e290610f96565b60405180910390fd5b600080805490509050600060405180604001604052808573ffffffffffffffffffffffffffffffffffffffff1673ffffffffffffffffffffffffffffffffffffffff1681526020018473ffffffffffffffffffffffffffffffffffffffff1673ffffffffffffffffffffffffffffffffffffffff16815250905060006040518060600160405280348152602001838152602001600015158152509080600181540180825580915050600190039060005260206000209060040201600090919091909150600082015181600001556020820151816001019060026107cf9291906108bf565b5060408201518160030160006101000a81548160ff02191690831515021790555050507f50ad08f58a27f2851d7e3a1b3a6a46b290f2ce677e99642d30ff639721e77790826040516108219190610b30565b60405180910390a150505050565b7f000000000000000000000000000000000000000000000000000000000000000073ffffffffffffffffffffffffffffffffffffffff1663f340fa0182846040518363ffffffff1660e01b81526004016108899190610aad565b6000604051808303818588803b1580156108a257600080fd5b505af11580156108b6573d6000803e3d6000fd5b50505050505050565b826002810192821561092b579160200282015b8281111561092a5782518260006101000a81548173ffffffffffffffffffffffffffffffffffffffff021916908373ffffffffffffffffffffffffffffffffffffffff160217905550916020019190600101906108d2565b5b509050610938919061093c565b5090565b5b8082111561095557600081600090555060010161093d565b5090565b600080fd5b600073ffffffffffffffffffffffffffffffffffffffff82169050919050565b60006109898261095e565b9050919050565b6109998161097e565b81146109a457600080fd5b50565b6000813590506109b681610990565b92915050565b6000602082840312156109d2576109d1610959565b5b60006109e0848285016109a7565b91505092915050565b6000819050919050565b6109fc816109e9565b8114610a0757600080fd5b50565b600081359050610a19816109f3565b92915050565b60008060408385031215610a3657610a35610959565b5b6000610a4485828601610a0a565b9250506020610a5585828601610a0a565b9150509250929050565b600060208284031215610a7557610a74610959565b5b6000610a8384828501610a0a565b91505092915050565b6000610a978261095e565b9050919050565b610aa781610a8c565b82525050565b6000602082019050610ac26000830184610a9e565b92915050565b610ad181610a8c565b8114610adc57600080fd5b50565b600081359050610aee81610ac8565b92915050565b600060208284031215610b0a57610b09610959565b5b6000610b1884828501610adf565b91505092915050565b610b2a816109e9565b82525050565b6000602082019050610b456000830184610b21565b92915050565b600081519050919050565b600082825260208201905092915050565b6000819050602082019050919050565b610b8081610a8c565b82525050565b6000610b928383610b77565b60208301905092915050565b6000602082019050919050565b6000610bb682610b4b565b610bc08185610b56565b9350610bcb83610b67565b8060005b83811015610bfc578151610be38882610b86565b9750610bee83610b9e565b925050600181019050610bcf565b5085935050505092915050565b60006020820190508181036000830152610c238184610bab565b905092915050565b60008060408385031215610c4257610c41610959565b5b6000610c5085828601610adf565b9250506020610c6185828601610adf565b9150509250929050565b610c748161097e565b82525050565b6000602082019050610c8f6000830184610c6b565b92915050565b7f4e487b7100000000000000000000000000000000000000000000000000000000600052603260045260246000fd5b600082825260208201905092915050565b7f63616e6e6f7420656e6420612067616d6520776869636820697320616c72656160008201527f647920656e646564000000000000000000000000000000000000000000000000602082015250565b6000610d31602883610cc4565b9150610d3c82610cd5565b604082019050919050565b60006020820190508181036000830152610d6081610d24565b9050919050565b6000606082019050610d7c6000830186610b21565b610d896020830185610a9e565b610d966040830184610b21565b949350505050565b600081519050610dad816109f3565b92915050565b600060208284031215610dc957610dc8610959565b5b6000610dd784828501610d9e565b91505092915050565b7f6a61636b706f74206d7573742062652067726561746572207468616e20300000600082015250565b6000610e16601e83610cc4565b9150610e2182610de0565b602082019050919050565b60006020820190508181036000830152610e4581610e09565b9050919050565b7f706c61796572205820616464726573732063616e6e6f7420626520656d707479600082015250565b6000610e82602083610cc4565b9150610e8d82610e4c565b602082019050919050565b60006020820190508181036000830152610eb181610e75565b9050919050565b7f706c61796572204f20616464726573732063616e6e6f7420626520656d707479600082015250565b6000610eee602083610cc4565b9150610ef982610eb8565b602082019050919050565b60006020820190508181036000830152610f1d81610ee1565b9050919050565b7f706c61796572205820616e6420706c61796572204f2063616e6e6f742068617660008201527f65207468652073616d65207061796f7574206164647265737300000000000000602082015250565b6000610f80603983610cc4565b9150610f8b82610f24565b604082019050919050565b60006020820190508181036000830152610faf81610f73565b905091905056fea264697066735822122032f75a6e46805fd7fb4c039c91d8b9485176f7243eb4fb75105dcc5134eb5ab564736f6c63430008120033608060405234801561001057600080fd5b5061002d61002261003260201b60201c565b61003a60201b60201c565b6100fe565b600033905090565b60008060009054906101000a900473ffffffffffffffffffffffffffffffffffffffff169050816000806101000a81548173ffffffffffffffffffffffffffffffffffffffff021916908373ffffffffffffffffffffffffffffffffffffffff1602179055508173ffffffffffffffffffffffffffffffffffffffff168173ffffffffffffffffffffffffffffffffffffffff167f8be0079c531659141344cd1fd0a4f28419497f9722a3daafe3b4186f6b6457e060405160405180910390a35050565b610a948061010d6000396000f3fe6080604052600436106100555760003560e01c806351cff8d91461005a578063715018a6146100835780638da5cb5b1461009a578063e3a9db1a146100c5578063f2fde38b14610102578063f340fa011461012b575b600080fd5b34801561006657600080fd5b50610081600480360381019061007c91906106b2565b610147565b005b34801561008f57600080fd5b50610098610253565b005b3480156100a657600080fd5b506100af610267565b6040516100bc9190610700565b60405180910390f35b3480156100d157600080fd5b506100ec60048036038101906100e79190610747565b610290565b6040516100f9919061078d565b60405180910390f35b34801561010e57600080fd5b5061012960048036038101906101249190610747565b6102d9565b005b61014560048036038101906101409190610747565b61035c565b005b61014f610411565b6000600160008373ffffffffffffffffffffffffffffffffffffffff1673ffffffffffffffffffffffffffffffffffffffff1681526020019081526020016000205490506000600160008473ffffffffffffffffffffffffffffffffffffffff1673ffffffffffffffffffffffffffffffffffffffff16815260200190815260200160002081905550610201818373ffffffffffffffffffffffffffffffffffffffff1661048f90919063ffffffff16565b8173ffffffffffffffffffffffffffffffffffffffff167f7084f5476618d8e60b11ef0d7d3f06914655adb8793e28ff7f018d4c76d505d582604051610247919061078d565b60405180910390a25050565b61025b610411565b6102656000610583565b565b60008060009054906101000a900473ffffffffffffffffffffffffffffffffffffffff16905090565b6000600160008373ffffffffffffffffffffffffffffffffffffffff1673ffffffffffffffffffffffffffffffffffffffff168152602001908152602001600020549050919050565b6102e1610411565b600073ffffffffffffffffffffffffffffffffffffffff168173ffffffffffffffffffffffffffffffffffffffff1603610350576040517f08c379a00000000000000000000000000000000000000000000000000000000081526004016103479061082b565b60405180910390fd5b61035981610583565b50565b610364610411565b600034905080600160008473ffffffffffffffffffffffffffffffffffffffff1673ffffffffffffffffffffffffffffffffffffffff16815260200190815260200160002060008282546103b8919061087a565b925050819055508173ffffffffffffffffffffffffffffffffffffffff167f2da466a7b24304f47e87fa2e1e5a81b9831ce54fec19055ce277ca2f39ba42c482604051610405919061078d565b60405180910390a25050565b610419610647565b73ffffffffffffffffffffffffffffffffffffffff16610437610267565b73ffffffffffffffffffffffffffffffffffffffff161461048d576040517f08c379a0000000000000000000000000000000000000000000000000000000008152600401610484906108fa565b60405180910390fd5b565b804710156104d2576040517f08c379a00000000000000000000000000000000000000000000000000000000081526004016104c990610966565b60405180910390fd5b60008273ffffffffffffffffffffffffffffffffffffffff16826040516104f8906109b7565b60006040518083038185875af1925050503d8060008114610535576040519150601f19603f3d011682016040523d82523d6000602084013e61053a565b606091505b505090508061057e576040517f08c379a000000000000000000000000000000000000000000000000000000000815260040161057590610a3e565b60405180910390fd5b505050565b60008060009054906101000a900473ffffffffffffffffffffffffffffffffffffffff169050816000806101000a81548173ffffffffffffffffffffffffffffffffffffffff021916908373ffffffffffffffffffffffffffffffffffffffff1602179055508173ffffffffffffffffffffffffffffffffffffffff168173ffffffffffffffffffffffffffffffffffffffff167f8be0079c531659141344cd1fd0a4f28419497f9722a3daafe3b4186f6b6457e060405160405180910390a35050565b600033905090565b600080fd5b600073ffffffffffffffffffffffffffffffffffffffff82169050919050565b600061067f82610654565b9050919050565b61068f81610674565b811461069a57600080fd5b50565b6000813590506106ac81610686565b92915050565b6000602082840312156106c8576106c761064f565b5b60006106d68482850161069d565b91505092915050565b60006106ea82610654565b9050919050565b6106fa816106df565b82525050565b600060208201905061071560008301846106f1565b92915050565b610724816106df565b811461072f57600080fd5b50565b6000813590506107418161071b565b92915050565b60006020828403121561075d5761075c61064f565b5b600061076b84828501610732565b91505092915050565b6000819050919050565b61078781610774565b82525050565b60006020820190506107a2600083018461077e565b92915050565b600082825260208201905092915050565b7f4f776e61626c653a206e6577206f776e657220697320746865207a65726f206160008201527f6464726573730000000000000000000000000000000000000000000000000000602082015250565b60006108156026836107a8565b9150610820826107b9565b604082019050919050565b6000602082019050818103600083015261084481610808565b9050919050565b7f4e487b7100000000000000000000000000000000000000000000000000000000600052601160045260246000fd5b600061088582610774565b915061089083610774565b92508282019050808211156108a8576108a761084b565b5b92915050565b7f4f776e61626c653a2063616c6c6572206973206e6f7420746865206f776e6572600082015250565b60006108e46020836107a8565b91506108ef826108ae565b602082019050919050565b60006020820190508181036000830152610913816108d7565b9050919050565b7f416464726573733a20696e73756666696369656e742062616c616e6365000000600082015250565b6000610950601d836107a8565b915061095b8261091a565b602082019050919050565b6000602082019050818103600083015261097f81610943565b9050919050565b600081905092915050565b50565b60006109a1600083610986565b91506109ac82610991565b600082019050919050565b60006109c282610994565b9150819050919050565b7f416464726573733a20756e61626c6520746f2073656e642076616c75652c207260008201527f6563697069656e74206d61792068617665207265766572746564000000000000602082015250565b6000610a28603a836107a8565b9150610a33826109cc565b604082019050919050565b60006020820190508181036000830152610a5781610a1b565b905091905056fea2646970667358221220354bb74edbdf05d149d157365d8608295acae43a2591e4a56ca7003a2efa9c1764736f6c63430008120033",
  "immutableReferences": {
    "119": [
      {
        "length": 32,
        "start": 455
      },
      {
        "length": 32,
        "start": 1213
      },
      {
        "length": 32,
        "start": 2097
      }
    ]
  },
  "source": "// SPDX-License-Identifier: UNLICENSED\npragma solidity ^0.8.13;\n\nimport \"@openzeppelin/contracts/security/PullPayment.sol\";\n\ncontract TicTacToe is PullPayment {\n  event GameStarted(uint game_id);\n  event GameWon(uint game_id, address winner, uint amount);\n\n  struct Game {\n    uint jackpot;\n    address[2] payout_addresses;\n    bool ended;\n  }\n\n  Game[] games;\n\n  address[] public winners;\n  mapping(address => uint) public leaderboard;\n\n  function startGame(address payout_x, address payout_o) public payable {\n    // must have some value attached for jackpot\n    require(msg.value > 0, \"jackpot must be greater than 0\");\n\n    // all params must be supplied\n    require(payout_x != address(0), \"player X address cannot be empty\");\n    require(payout_o != address(0), \"player O address cannot be empty\");\n\n    // msg.sender and payout_o cannot be the same address\n    require(payout_x != payout_o, \"player X and player O cannot have the same payout address\");\n\n    uint new_game_id = games.length;\n    address[2] memory payout_addresses = [payout_x, payout_o];\n    games.push(Game(msg.value, payout_addresses, false));\n\n    emit GameStarted(new_game_id);\n  }\n\n  function endGame(uint game_id, uint winner) public {\n    // make sure the game hasn't already ended\n    require(!games[game_id].ended, \"cannot end a game which is already ended\");\n\n    address winner_address = games[game_id].payout_addresses[winner];\n    uint jackpot = games[game_id].jackpot;\n\n    games[game_id].ended = true;\n\n    _asyncTransfer(winner_address, jackpot);\n\n    emit GameWon(game_id, winner_address, jackpot);\n  }\n\n  function getWinners() public view returns(address[] memory) {\n    return winners;\n  }\n}\n",
  "sourcePath": "/Users/joshquintal/dev/ttt-contracts/contracts/TicTacToe.sol",
  "compiler": {
    "name": "solc",
    "version": "0.8.18+commit.87f61d96.Emscripten.clang"
  },
  "schemaVersion": "3.4.11",
  "updatedAt": "2023-02-23T01:24:55.023Z",
  "networkType": "ethereum",
  "devdoc": {
    "kind": "dev",
    "methods": {
      "payments(address)": {
        "details": "Returns the payments owed to an address.",
        "params": {
          "dest": "The creditor's address."
        }
      },
      "withdrawPayments(address)": {
        "details": "Withdraw accumulated payments, forwarding all gas to the recipient. Note that _any_ account can call this function, not just the `payee`. This means that contracts unaware of the `PullPayment` protocol can still receive funds this way, by having a separate account call {withdrawPayments}. WARNING: Forwarding all gas opens the door to reentrancy vulnerabilities. Make sure you trust the recipient, or are either following the checks-effects-interactions pattern or using {ReentrancyGuard}.",
        "params": {
          "payee": "Whose payments will be withdrawn. Causes the `escrow` to emit a {Withdrawn} event."
        }
      }
    },
    "version": 1
  },
  "userdoc": {
    "kind": "user",
    "methods": {},
    "version": 1
  }
}